:100000000C9462000C94D9040C94B2040C948A00F1
:100010000C948A000C948A000C948A000C948A0038
:100020000C948A000C948A000C948A000C948A0028
:100030000C948A000C948A000C948A000C948A0018
:100040000C9468040C948A000C9426050C9400050A
:100050000C948A000C948A000C948A000C948A00F8
:100060000C948A000C948A000000000024002700F1
:100070002A0000000000250028002B0000000000DE
:1000800023002600290004040404040404040202DA
:100090000202020203030303030301020408102007
:1000A0004080010204081020010204081020000012
:1000B0000008000201000003040700000000000027
:1000C0000000930711241FBECFEFD8E0DEBFCDBFE5
:1000D00012E0A0E0B1E0ECEFF1E102C005900D927A
:1000E000A83AB107D9F723E0A8EAB2E001C01D920F
:1000F000A93AB207E1F710E0C2E6D0E004C02197C8
:10010000FE010E94EF08C136D107C9F70E945805C9
:100110000C94FC080C940000833081F028F48130AA
:1001200099F08230A9F008958730A9F08830C9F09D
:100130008430B1F4809180008F7D03C08091800075
:100140008F7780938000089584B58F7784BD08955C
:1001500084B58F7DFBCF8091B0008F778093B00006
:1001600008958091B0008F7DF9CFCF93DF93282F32
:1001700030E0F901E255FF4F8491F901E656FF4F57
:10018000D491F901EA57FF4FC491CC23A1F081111A
:100190000E948C00EC2FF0E0EE0FFF1FE458FF4FA1
:1001A000A591B491EC91ED2381E090E009F480E019
:1001B000DF91CF91089580E090E0FACF1F93CF9325
:1001C000DF93282F30E0F901E255FF4F8491F901C8
:1001D000E656FF4FD491F901EA57FF4FC491CC2363
:1001E000A9F0162F81110E948C00EC2FF0E0EE0F89
:1001F000FF1FEE58FF4FA591B4918FB7F894EC9183
:10020000111108C0D095DE23DC938FBFDF91CF9111
:100210001F910895DE2BF8CFCF93DF9390E0FC0180
:10022000E656FF4F24918A579F4FFC018491882303
:10023000D1F090E0880F991FFC01E859FF4FA5917C
:10024000B491FC01EE58FF4FC591D491623071F426
:100250009FB7F8943C91822F809583238C93E881FB
:100260002E2B28839FBFDF91CF9108958FB7F894ED
:10027000EC912E2B2C938FBFF6CF1F93CF93DF9350
:10028000182FEB0161E00E940C01209739F460E027
:10029000812FDF91CF911F910C94DE00E12FF0E0D0
:1002A000E255FF4FE491E33039F148F4E130B9F021
:1002B000E230E9F0C038D10554F361E0E9CFE7302E
:1002C00029F1E83059F1E430A9F78091800080628B
:1002D00080938000D0938B00C0938A0004C084B5C3
:1002E000806884BDC7BDDF91CF911F91089584B50B
:1002F000806284BDC8BDF7CF809180008068809304
:100300008000D0938900C0938800EDCF8091B00029
:1003100080688093B000C093B300E5CF8091B000B7
:1003200080628093B000C093B400DDCF2FB7F89403
:10033000609108037091090380910A0390910B0367
:100340002FBF08950895AF92BF92CF92DF92EF92A0
:10035000FF920F931F93CF93DF936C017B018B016F
:10036000040F151FEB015E01AE18BF08C017D107BF
:1003700059F06991D601ED91FC910190F081E02D49
:10038000C6010995892B79F7C501DF91CF911F919E
:100390000F91FF90EF90DF90CF90BF90AF900895B6
:1003A000FC01538D448D252F30E0842F90E0821B7B
:1003B000930B541710F0CF96089501970895FC0100
:1003C000918D828D981761F0A28DAE0FBF2FB11D58
:1003D0005D968C91928D9F5F9F73928F90E00895B0
:1003E0008FEF9FEF0895FC01918D828D981731F06A
:1003F000828DE80FF11D858D90E008958FEF9FEFBE
:100400000895FC01918D228D892F90E0805C9F4F93
:10041000821B91098F73992708958CE093E00E94C5
:10042000010221E0892B09F420E0822F089580E069
:1004300090E0892B29F00E940D0281110C9400009C
:100440000895FC01A48DA80FB92FB11DA35ABF4F69
:100450002C91848D90E001968F739927848FA689C3
:10046000B7892C93A089B1898C91837080648C9317
:10047000938D848D981306C00288F389E02D8081C6
:100480008F7D80830895EF92FF920F931F93CF93F8
:10049000DF93EC0181E0888F9B8D8C8D98131AC0BF
:1004A000E889F989808185FF15C09FB7F894EE89A6
:1004B000FF896083E889F989808183708064808303
:1004C0009FBF81E090E0DF91CF911F910F91FF904E
:1004D000EF900895F62E0B8D10E00F5F1F4F0F73F6
:1004E0001127E02E8C8D8E110CC00FB607FCFACFB1
:1004F000E889F989808185FFF5CFCE010E9421022C
:10050000F1CFEB8DEC0FFD2FF11DE35AFF4FF08281
:100510009FB7F8940B8FEA89FB8980818062CFCFE7
:10052000CF93DF93EC01888D8823B9F0AA89BB892A
:10053000E889F9898C9185FD03C0808186FD0DC015
:100540000FB607FCF7CF8C9185FFF2CF808185FF36
:10055000EDCFCE010E942102E9CFDF91CF91089526
:100560000F931F93CF93DF938B01EA01BC018BE0C4
:100570000E943D01B8018AE00E943D01BE0189E070
:10058000DF91CF911F910F910C943D01FC010190DF
:100590000020E9F73197AF01481B590BBC018CE0F3
:1005A00093E00C94A301CF93DF93D0E0C0E00097D9
:1005B00019F00E94C602EC0181E792E00E94C60297
:1005C0008C0F9D1FDF91CF9108950F931F93809102
:1005D00022018823E1F10E9496010091A802109166
:1005E000A9022091AA023091AB02601B710B820B11
:1005F000930B6D3271408105910548F182E00E94B4
:10060000B500892B21F50E9496016093A802709392
:10061000A9028093AA029093AB028091DA02909192
:10062000DB02019663E070E00E94C7089093DB0252
:100630008093DA024AE0489F9001499F300D1124CF
:10064000C90180509F4F1F910F910C94D3021F91AD
:100650000F9108958F929F92AF92BF92CF92DF92A7
:10066000EF92FF92892B09F456C08091B0029091CD
:10067000B10201969093B1028093B00282E792E0BA
:100680000E94D30264E872E080EE92E00E94F508D6
:100690001092D9021092D8020E940C088090FE029B
:1006A0009090FF02A0900003B09001032AE0C22EB8
:1006B000D12CE12CF12CA70196010E946408680D51
:1006C000791D8A1D9B1DA70196010E9496082EE1A7
:1006D000269FA001279F500D1124BA016D5D7E4F0A
:1006E0008AEB92E00E94F5088AEB92E00E94D30226
:1006F0000E9496016093DC027093DD028093DE021B
:100700009093DF02FF90EF90DF90CF90BF90AF907B
:100710009F908F90089584E792E0B2CF8F929F923E
:10072000AF92BF92CF92DF92EF92FF92CF93DF937F
:10073000CDB7DEB7A1970FB6F894DEBF0FBECDBF21
:1007400086E892E00E94D302C090B002D090B1023D
:100750000D2C000CEE08FF08F7FE4BC06DE28CE09C
:1007600093E00E94430222273327A9012C193D0957
:100770004E095F0919A2CE0181967C019AE0892E6B
:10078000912CA12CB12CCA01B901A50194010E94A0
:100790009608605DF70162937F01211531054105DF
:1007A000510589F7E114F10419F0C7010E94C6024E
:1007B00081E792E00E94C60282E792E00E94D302A3
:1007C00044E650E064E670E084E690E00E94B00207
:1007D000A1960FB6F894DEBF0FBECDBFDF91CF91CB
:1007E000FF90EF90DF90CF90BF90AF909F908F9051
:1007F0000895A701960119A2CE0181967C018AE095
:10080000882E912CA12CB12CCA01B901A50194010B
:100810000E949608605DF70162937F012115310502
:100820004105510589F7BECF0F931F930E94960192
:100830000091AC021091AD022091AE023091AF0256
:10084000601B710B820B930B6D327140810591051A
:10085000C0F183E00E94B500892B99F50E949601B2
:100860006093AC027093AD028093AE029093AF029E
:100870009091220121E0922790932201809102031E
:100880008227809302038823F9F00E9496016093E7
:10089000FE027093FF028093000390930103109275
:1008A000B1021092B0020E9496016093B60270935A
:1008B000B7028093B8029093B9021092B3021092DB
:1008C000B2021F910F9108951F910F910C948E0306
:1008D0001F920F920FB60F9211242F933F938F9375
:1008E0009F93AF93BF938091080390910903A091C8
:1008F0000A03B0910B033091070323E0230F2D3738
:1009000058F50196A11DB11D20930703809308039C
:1009100090930903A0930A03B0930B038091030300
:1009200090910403A0910503B09106030196A11DC7
:10093000B11D8093030390930403A0930503B09328
:100940000603BF91AF919F918F913F912F910F908F
:100950000FBE0F901F90189526E8230F0296A11D39
:10096000B11DD2CF1F920F920FB60F9211242F9369
:100970003F934F935F936F937F938F939F93AF9327
:10098000BF93EF93FF93E0912001F091210109952E
:10099000FF91EF91BF91AF919F918F917F916F9157
:1009A0005F914F913F912F910F900FBE0F901F902D
:1009B00018951F920F920FB60F9211242F933F9309
:1009C0004F935F936F937F938F939F93AF93BF9357
:1009D000EF93FF93E0911E01F0911F010995FF91A4
:1009E000EF91BF91AF919F918F917F916F915F91A7
:1009F0004F913F912F910F900FBE0F901F90189520
:100A00001F920F920FB60F9211242F933F934F9383
:100A10005F936F937F938F939F93AF93BF93EF9366
:100A2000FF938CE093E00E942102FF91EF91BF9130
:100A3000AF919F918F917F916F915F914F913F9176
:100A40002F910F900FBE0F901F9018951F920F922D
:100A50000FB60F9211242F938F939F93EF93FF93D1
:100A6000E0911C03F0911D038081E0912203F0913D
:100A7000230382FD1BC09081809125038F5F8F73BC
:100A800020912603821741F0E0912503F0E0E45F16
:100A9000FC4F958F80932503FF91EF919F918F914C
:100AA0002F910F900FBE0F901F9018958081F4CF5B
:100AB000789484B5826084BD84B5816084BD85B539
:100AC000826085BD85B5816085BD80916E00816045
:100AD00080936E00109281008091810082608093EB
:100AE00081008091810081608093810080918000ED
:100AF0008160809380008091B10084608093B10018
:100B00008091B00081608093B00080917A00846011
:100B100080937A0080917A00826080937A0080913D
:100B20007A00816080937A0080917A008068809357
:100B30007A001092C100E0911C03F0911D0382E045
:100B40008083E0911803F09119031082E0911A0359
:100B5000F0911B0384E4808310922403E09120032E
:100B6000F091210386E08083E0911E03F0911F0342
:100B7000808180618083E0911E03F0911F0380815A
:100B800088608083E0911E03F0911F03808180685C
:100B90008083E0911E03F0911F0380818F7D80830D
:100BA00061E08BE00E940C0161E08AE00E940C0190
:100BB00061E089E00E940C0144E650E064E670E0E8
:100BC00084E690E00E94B00262E083E00E940C01A3
:100BD00062E082E00E940C0184E194E090932101A4
:100BE0008093200180916900837F886080936900F1
:100BF000E99A85EE92E090931F0180931E01809107
:100C000069008C7F826080936900E89A87E992E0AE
:100C10000E94D3024AEB642E42E0742E5AE0C52EA5
:100C2000D12CE12CF12C02E010E060E0A62E60E077
:100C3000B62E9924939480910203882309F4DDC091
:100C40000E9496012091FE023091FF024091000324
:100C500050910103621B730B840B950B693E704826
:100C60008105910558F090922201109202030E9492
:100C70008E0380910203882309F4BFC00E9496016D
:100C80002091FE023091FF02409100035091010338
:100C9000621B730B840B950B6B3E7B4081059105AA
:100CA00008F0B7C00E9496012091B6023091B702B9
:100CB0004091B8025091B902621B730B840B950BE3
:100CC000653F71408105910508F444C08090B202EF
:100CD0005090B3020E9496016093B6027093B702DF
:100CE0008093B8029093B902C091B402D091B5023A
:100CF000F4E6FC9FC001FD9F900D1124AC01BC01E6
:100D00000E94B002CE010196B8010E94C7089093DC
:100D1000B5028093B40280FC14C0682D752D77FF56
:100D200002C06F5F7F4F75956795719561957109E9
:100D30006D5C8CE093E00E94430281E792E00E94A8
:100D4000C6028091B2029091B30201969093B302D1
:100D50008093B2028091B2029091B302069709F09B
:100D60004CC01092D9021092D80263E772E080EE74
:100D700092E00E94F5080E940C082090FE0230903C
:100D8000FF024090000350900103A70196010E94CA
:100D90006408620D731D841D951DA70196010E94B4
:100DA00096084EE1469F9001479F300D1124B901EE
:100DB0006D5D7E4F8AEB92E00E94F5088AEB92E02F
:100DC0000E94D3020E9496016093DC027093DD02C0
:100DD0008093DE029093DF0250E040E064E670E032
:100DE00090E080E00E94B0028091B2029091B30244
:100DF00001969093B3028093B202A114B10409F456
:100E00001ACF0E940D02882309F413CF0E9400001C
:100E100010CF8CE093E00E940102892B09F453C0AB
:100E20008CE093E00E94DF012091D8023091D9023A
:100E3000883061F51216130654F421503109F90176
:100E4000E052FD4F10823093D9022093D802E0EE99
:100E5000F2E001900020E9F7CF01815E9240AAEB19
:100E6000B2E0E0EEF2E09F01205E32402817390741
:100E7000E4F431912D913217B1F350E040E070E08D
:100E800060E084E690E00E94B0021DC0F901E052EB
:100E9000FD4F80832F5F3F4F3093D9022093D802BC
:100EA00020523D4FF9011082D2CFF3010190002072
:100EB000E9F79F012B5B32408217930769F581E0C8
:100EC00090E00E942A030E9496012091DC0230915A
:100ED000DD024091DE025091DF02DC01CB01821B7A
:100EE000930BA40BB50BE091DA02F091DB02EE0F4D
:100EF000FF1FEE0FFF1FEB59FD4F20813181428113
:100F00005381281739074A075B0708F076CF90E02E
:100F100080E00E942A0371CF50E040E064E670E078
:100F200090E080E0B0CFECE0F3E01382128288EE34
:100F300093E0A0E0B0E084839583A683B78387E540
:100F400092E09183808385EC90E09587848784ECA0
:100F500090E09787868780EC90E0918B808B81EC86
:100F600090E0938B828B82EC90E0958B848B86EC67
:100F700090E0978B868B118E128E138E148E0895AF
:100F80008F929F92AF92BF92CF92DF92EF92FF9299
:100F9000CF93DF93EC01688179818A819B81611510
:100FA00071058105910521F464E279ED8BE597E007
:100FB0002DE133EF41E050E00E94640849015A01FD
:100FC0009B01AC01A7EAB1E40E9483086B017C019C
:100FD000ACEEB4EFA50194010E949108C60ED71E95
:100FE000E81EF91EF7FE06C081E0C81AD108E10824
:100FF00080E8F80AC882D982EA82FB82C701B6017A
:101000009F77DF91CF91FF90EF90DF90CF90BF90CF
:10101000AF909F908F9008958F929F92AF92BF92C2
:10102000CF92DF92EF92FF9260914F027091500247
:1010300080915102909152026115710581059105CF
:1010400021F464E279ED8BE597E02DE133EF41E0A7
:1010500050E00E94640849015A019B01AC01A7EAD3
:10106000B1E40E9483086B017C01ACEEB4EFA501F2
:1010700094010E949108C60ED71EE81EF91EF7FEC5
:1010800006C081E0C81AD108E10880E8F80AC092D9
:101090004F02D0925002E0925102F0925202C701E8
:1010A000B6019F77FF90EF90DF90CF90BF90AF9009
:1010B0009F908F90089560934F0270935002809399
:1010C0005102909352020895052E97FB1EF400944E
:1010D0000E947B0857FD07D00E94960807FC03D0AA
:1010E0004EF40C947B0850954095309521953F4FD8
:1010F0004F4F5F4F089590958095709561957F4F04
:101100008F4F9F4F08950E94B808A59F900DB49FE0
:10111000900DA49F800D911D11240895B7FF0C948C
:1011200083080E948308821B930B0895A1E21A2E64
:10113000AA1BBB1BFD010DC0AA1FBB1FEE1FFF1F7B
:10114000A217B307E407F50720F0A21BB30BE40BCB
:10115000F50B661F771F881F991F1A9469F7609512
:101160007095809590959B01AC01BD01CF010895CC
:10117000A29FB001B39FC001A39F700D811D1124D8
:10118000911DB29F700D811D1124911D089597FB33
:10119000072E16F4009407D077FD09D00E94DB08D3
:1011A00007FC05D03EF4909581959F4F089570956A
:1011B00061957F4F0895AA1BBB1B51E107C0AA1F71
:1011C000BB1FA617B70710F0A61BB70B881F991FE8
:1011D0005A95A9F780959095BC01CD010895EE0F21
:1011E000FF1F0590F491E02D0994FB01DC010190B3
:0C11F0000D920020E1F70895F894FFCF65
:1011FC000A55736F720A000000000A4D6564697528
:10120C000A0000000A477265750A00000000A2017E
:10121C00A20101726F626F746963610000000000CB
:10122C0000000000000000000000000000000000B2
:10123C000061726475696E6F0000000000000000B0
:10124C000000000000000000000000000000006D25
:10125C0069746F636F6E6472696500000000000052
:10126C0000000000000000000000000000616C663F
:10127C0061626574000000000000000000000000C6
:10128C000000000000000000000000706F72746F1E
:10129C0063616C6975000000000000000000000034
:1012AC00000000000000000000656C6566616E7453
:1012BC000000000000000000000000000000000022
:1012CC00000000000000007665686963756C000022
:1012DC000000000000000000000000000000000002
:1012EC00000000000076697361746F7200000000EA
:1012FC0000000000000000000000000000000000E2
:10130C000000006E756D65726F73000000000000C8
:10131C0000000000000000000000000000000000C1
:10132C0000706172616469730000000000000000CD
:10133C0000000000000000000000000000000001A0
:10134C00000000000000004302A301D00190020144
:10135C0002DF01F30188130000A00F0000B80B009E
:10136C00000D0A000A54696D70206578706972610D
:10137C0074210A0020000A5465726D696E61742133
:10138C000A53636F723A000A536574757020636F69
:08139C006D706C65740A00001D
:00000001FF
